{
  "_format": "hh-sol-artifact-1",
  "contractName": "Marketplace",
  "sourceName": "src/backend/contracts/Marketplace.sol",
  "abi": [
    {
      "inputs": [],
      "stateMutability": "nonpayable",
      "type": "constructor"
    },
    {
      "anonymous": false,
      "inputs": [
        {
          "indexed": false,
          "internalType": "uint256",
          "name": "itemId",
          "type": "uint256"
        },
        {
          "indexed": true,
          "internalType": "address",
          "name": "nft",
          "type": "address"
        },
        {
          "indexed": false,
          "internalType": "uint256",
          "name": "tokenId",
          "type": "uint256"
        },
        {
          "indexed": false,
          "internalType": "uint256",
          "name": "price",
          "type": "uint256"
        },
        {
          "indexed": true,
          "internalType": "address",
          "name": "seller",
          "type": "address"
        },
        {
          "indexed": true,
          "internalType": "address",
          "name": "buyer",
          "type": "address"
        }
      ],
      "name": "Bought",
      "type": "event"
    },
    {
      "anonymous": false,
      "inputs": [
        {
          "indexed": false,
          "internalType": "uint256",
          "name": "itemId",
          "type": "uint256"
        },
        {
          "indexed": true,
          "internalType": "address",
          "name": "nft",
          "type": "address"
        },
        {
          "indexed": false,
          "internalType": "uint256",
          "name": "tokenId",
          "type": "uint256"
        },
        {
          "indexed": false,
          "internalType": "uint256",
          "name": "price",
          "type": "uint256"
        },
        {
          "indexed": true,
          "internalType": "address",
          "name": "seller",
          "type": "address"
        }
      ],
      "name": "Offered",
      "type": "event"
    },
    {
      "inputs": [],
      "name": "feeAccount",
      "outputs": [
        {
          "internalType": "address payable",
          "name": "",
          "type": "address"
        }
      ],
      "stateMutability": "view",
      "type": "function"
    },
    {
      "inputs": [],
      "name": "feePercent",
      "outputs": [
        {
          "internalType": "uint256",
          "name": "",
          "type": "uint256"
        }
      ],
      "stateMutability": "view",
      "type": "function"
    },
    {
      "inputs": [
        {
          "internalType": "uint256",
          "name": "_itemId",
          "type": "uint256"
        }
      ],
      "name": "getTotalPrice",
      "outputs": [
        {
          "internalType": "uint256",
          "name": "",
          "type": "uint256"
        }
      ],
      "stateMutability": "view",
      "type": "function"
    },
    {
      "inputs": [],
      "name": "itemCount",
      "outputs": [
        {
          "internalType": "uint256",
          "name": "",
          "type": "uint256"
        }
      ],
      "stateMutability": "view",
      "type": "function"
    },
    {
      "inputs": [
        {
          "internalType": "uint256",
          "name": "",
          "type": "uint256"
        }
      ],
      "name": "items",
      "outputs": [
        {
          "internalType": "uint256",
          "name": "itemId",
          "type": "uint256"
        },
        {
          "internalType": "contract IERC721",
          "name": "nft",
          "type": "address"
        },
        {
          "internalType": "uint256",
          "name": "tokenId",
          "type": "uint256"
        },
        {
          "internalType": "uint256",
          "name": "price",
          "type": "uint256"
        },
        {
          "internalType": "address payable",
          "name": "seller",
          "type": "address"
        },
        {
          "internalType": "bool",
          "name": "sold",
          "type": "bool"
        }
      ],
      "stateMutability": "view",
      "type": "function"
    },
    {
      "inputs": [
        {
          "internalType": "contract IERC721",
          "name": "_nft",
          "type": "address"
        },
        {
          "internalType": "uint256",
          "name": "_tokenId",
          "type": "uint256"
        },
        {
          "internalType": "uint256",
          "name": "_price",
          "type": "uint256"
        },
        {
          "internalType": "uint256",
          "name": "_feePercent",
          "type": "uint256"
        }
      ],
      "name": "makeItem",
      "outputs": [],
      "stateMutability": "nonpayable",
      "type": "function"
    },
    {
      "inputs": [
        {
          "internalType": "uint256",
          "name": "_itemId",
          "type": "uint256"
        }
      ],
      "name": "purchaseItem",
      "outputs": [],
      "stateMutability": "payable",
      "type": "function"
    },
    {
      "inputs": [
        {
          "internalType": "uint256",
          "name": "",
          "type": "uint256"
        }
      ],
      "name": "royalties",
      "outputs": [
        {
          "internalType": "uint256",
          "name": "feePercent",
          "type": "uint256"
        }
      ],
      "stateMutability": "view",
      "type": "function"
    },
    {
      "inputs": [
        {
          "internalType": "uint256",
          "name": "_newRoyaltyFee",
          "type": "uint256"
        }
      ],
      "name": "setRoyaltyFee",
      "outputs": [],
      "stateMutability": "nonpayable",
      "type": "function"
    }
  ],
  "bytecode": "0x60a060405234801561001057600080fd5b5060016000819055503373ffffffffffffffffffffffffffffffffffffffff1660808173ffffffffffffffffffffffffffffffffffffffff168152505060805161111661006f6000396000818161024201526107b101526111166000f3fe6080604052600436106100865760003560e01c80637f77f574116100595780637f77f574146101335780637fd6f15c14610170578063bfb231d21461019b578063ca7dd375146101dd578063d38ea5bf1461021a57610086565b80633e4086e51461008b57806365e17c9d146100b4578063696aae08146100df5780636bfb0d0114610108575b600080fd5b34801561009757600080fd5b506100b260048036038101906100ad9190610a4a565b610236565b005b3480156100c057600080fd5b506100c9610240565b6040516100d69190610ab8565b60405180910390f35b3480156100eb57600080fd5b5061010660048036038101906101019190610b23565b610264565b005b34801561011457600080fd5b5061011d610522565b60405161012a9190610b99565b60405180910390f35b34801561013f57600080fd5b5061015a60048036038101906101559190610a4a565b610528565b6040516101679190610b99565b60405180910390f35b34801561017c57600080fd5b50610185610546565b6040516101929190610b99565b60405180910390f35b3480156101a757600080fd5b506101c260048036038101906101bd9190610a4a565b61054c565b6040516101d496959493929190610c2e565b60405180910390f35b3480156101e957600080fd5b5061020460048036038101906101ff9190610a4a565b6105d5565b6040516102119190610b99565b60405180910390f35b610234600480360381019061022f9190610a4a565b61062e565b005b8060018190555050565b7f000000000000000000000000000000000000000000000000000000000000000081565b61026c6109b6565b600082116102af576040517f08c379a00000000000000000000000000000000000000000000000000000000081526004016102a690610cec565b60405180910390fd5b600260008154809291906102c290610d3b565b91905055508373ffffffffffffffffffffffffffffffffffffffff166323b872dd3330866040518463ffffffff1660e01b815260040161030493929190610d92565b600060405180830381600087803b15801561031e57600080fd5b505af1158015610332573d6000803e3d6000fd5b505050506040518060c0016040528060025481526020018573ffffffffffffffffffffffffffffffffffffffff1681526020018481526020018381526020013373ffffffffffffffffffffffffffffffffffffffff168152602001600015158152506003600060025481526020019081526020016000206000820151816000015560208201518160010160006101000a81548173ffffffffffffffffffffffffffffffffffffffff021916908373ffffffffffffffffffffffffffffffffffffffff160217905550604082015181600201556060820151816003015560808201518160040160006101000a81548173ffffffffffffffffffffffffffffffffffffffff021916908373ffffffffffffffffffffffffffffffffffffffff16021790555060a08201518160040160146101000a81548160ff021916908315150217905550905050604051806020016040528082815250600460006002548152602001908152602001600020600082015181600001559050503373ffffffffffffffffffffffffffffffffffffffff168473ffffffffffffffffffffffffffffffffffffffff167f655a0cf9c8db81512be9a76dc1c5ae5380b8816ce6ad659cd61b715e2999d59a600254868660405161050c93929190610dc9565b60405180910390a361051c610a05565b50505050565b60025481565b60046020528060005260406000206000915090508060000154905081565b60015481565b60036020528060005260406000206000915090508060000154908060010160009054906101000a900473ffffffffffffffffffffffffffffffffffffffff16908060020154908060030154908060040160009054906101000a900473ffffffffffffffffffffffffffffffffffffffff16908060040160149054906101000a900460ff16905086565b60006064600460008481526020019081526020016000206000015460646105fc9190610e00565b600360008581526020019081526020016000206003015461061d9190610e34565b6106279190610ea5565b9050919050565b6106366109b6565b6000610641826105d5565b9050600060036000848152602001908152602001600020905060008311801561066c57506002548311155b6106ab576040517f08c379a00000000000000000000000000000000000000000000000000000000081526004016106a290610f22565b60405180910390fd5b813410156106ee576040517f08c379a00000000000000000000000000000000000000000000000000000000081526004016106e590610fb4565b60405180910390fd5b8060040160149054906101000a900460ff1615610740576040517f08c379a000000000000000000000000000000000000000000000000000000000815260040161073790611020565b60405180910390fd5b8060040160009054906101000a900473ffffffffffffffffffffffffffffffffffffffff1673ffffffffffffffffffffffffffffffffffffffff166108fc82600301549081150290604051600060405180830381858888f193505050501580156107ae573d6000803e3d6000fd5b507f000000000000000000000000000000000000000000000000000000000000000073ffffffffffffffffffffffffffffffffffffffff166108fc8260030154846107f99190611040565b9081150290604051600060405180830381858888f19350505050158015610824573d6000803e3d6000fd5b5060018160040160146101000a81548160ff0219169083151502179055508060010160009054906101000a900473ffffffffffffffffffffffffffffffffffffffff1673ffffffffffffffffffffffffffffffffffffffff166323b872dd303384600201546040518463ffffffff1660e01b81526004016108a793929190610d92565b600060405180830381600087803b1580156108c157600080fd5b505af11580156108d5573d6000803e3d6000fd5b505050503373ffffffffffffffffffffffffffffffffffffffff168160040160009054906101000a900473ffffffffffffffffffffffffffffffffffffffff1673ffffffffffffffffffffffffffffffffffffffff168260010160009054906101000a900473ffffffffffffffffffffffffffffffffffffffff1673ffffffffffffffffffffffffffffffffffffffff167f8b4c9c8a607d67b321582dd8461041b1dc2ceeca70c8b7f37f8e02095cf2e76d86856002015486600301546040516109a193929190610dc9565b60405180910390a450506109b3610a05565b50565b6002600054036109fb576040517f08c379a00000000000000000000000000000000000000000000000000000000081526004016109f2906110c0565b60405180910390fd5b6002600081905550565b6001600081905550565b600080fd5b6000819050919050565b610a2781610a14565b8114610a3257600080fd5b50565b600081359050610a4481610a1e565b92915050565b600060208284031215610a6057610a5f610a0f565b5b6000610a6e84828501610a35565b91505092915050565b600073ffffffffffffffffffffffffffffffffffffffff82169050919050565b6000610aa282610a77565b9050919050565b610ab281610a97565b82525050565b6000602082019050610acd6000830184610aa9565b92915050565b6000610ade82610a77565b9050919050565b6000610af082610ad3565b9050919050565b610b0081610ae5565b8114610b0b57600080fd5b50565b600081359050610b1d81610af7565b92915050565b60008060008060808587031215610b3d57610b3c610a0f565b5b6000610b4b87828801610b0e565b9450506020610b5c87828801610a35565b9350506040610b6d87828801610a35565b9250506060610b7e87828801610a35565b91505092959194509250565b610b9381610a14565b82525050565b6000602082019050610bae6000830184610b8a565b92915050565b6000819050919050565b6000610bd9610bd4610bcf84610a77565b610bb4565b610a77565b9050919050565b6000610beb82610bbe565b9050919050565b6000610bfd82610be0565b9050919050565b610c0d81610bf2565b82525050565b60008115159050919050565b610c2881610c13565b82525050565b600060c082019050610c436000830189610b8a565b610c506020830188610c04565b610c5d6040830187610b8a565b610c6a6060830186610b8a565b610c776080830185610aa9565b610c8460a0830184610c1f565b979650505050505050565b600082825260208201905092915050565b7f5072696365206d757374206e6f74206265207a65726f00000000000000000000600082015250565b6000610cd6601683610c8f565b9150610ce182610ca0565b602082019050919050565b60006020820190508181036000830152610d0581610cc9565b9050919050565b7f4e487b7100000000000000000000000000000000000000000000000000000000600052601160045260246000fd5b6000610d4682610a14565b91507fffffffffffffffffffffffffffffffffffffffffffffffffffffffffffffffff8203610d7857610d77610d0c565b5b600182019050919050565b610d8c81610ad3565b82525050565b6000606082019050610da76000830186610d83565b610db46020830185610d83565b610dc16040830184610b8a565b949350505050565b6000606082019050610dde6000830186610b8a565b610deb6020830185610b8a565b610df86040830184610b8a565b949350505050565b6000610e0b82610a14565b9150610e1683610a14565b9250828201905080821115610e2e57610e2d610d0c565b5b92915050565b6000610e3f82610a14565b9150610e4a83610a14565b9250828202610e5881610a14565b91508282048414831517610e6f57610e6e610d0c565b5b5092915050565b7f4e487b7100000000000000000000000000000000000000000000000000000000600052601260045260246000fd5b6000610eb082610a14565b9150610ebb83610a14565b925082610ecb57610eca610e76565b5b828204905092915050565b7f4974656d20646f65736e27742065786973740000000000000000000000000000600082015250565b6000610f0c601283610c8f565b9150610f1782610ed6565b602082019050919050565b60006020820190508181036000830152610f3b81610eff565b9050919050565b7f4e6f7420656e6f75676820657468657220746f20706179206974656d2070726960008201527f636520616e64206d61726b657420666565000000000000000000000000000000602082015250565b6000610f9e603183610c8f565b9150610fa982610f42565b604082019050919050565b60006020820190508181036000830152610fcd81610f91565b9050919050565b7f4974656d2068617320616c726561647920736f6c640000000000000000000000600082015250565b600061100a601583610c8f565b915061101582610fd4565b602082019050919050565b6000602082019050818103600083015261103981610ffd565b9050919050565b600061104b82610a14565b915061105683610a14565b925082820390508181111561106e5761106d610d0c565b5b92915050565b7f5265656e7472616e637947756172643a207265656e7472616e742063616c6c00600082015250565b60006110aa601f83610c8f565b91506110b582611074565b602082019050919050565b600060208201905081810360008301526110d98161109d565b905091905056fea264697066735822122046b40c3b9a6e69331344018c83a37898f4e5f1db2d643dcfc19895928755b61264736f6c63430008110033",
  "linkReferences": {},
  "deployedLinkReferences": {}
}