{
  "_format": "hh-sol-artifact-1",
  "contractName": "Marketplace",
  "sourceName": "src/backend/contracts/Marketplace.sol",
  "abi": [
    {
      "inputs": [],
      "stateMutability": "nonpayable",
      "type": "constructor"
    },
    {
      "anonymous": false,
      "inputs": [
        {
          "indexed": false,
          "internalType": "uint256",
          "name": "itemId",
          "type": "uint256"
        },
        {
          "indexed": true,
          "internalType": "address",
          "name": "nft",
          "type": "address"
        },
        {
          "indexed": false,
          "internalType": "uint256",
          "name": "tokenId",
          "type": "uint256"
        },
        {
          "indexed": false,
          "internalType": "uint256",
          "name": "price",
          "type": "uint256"
        },
        {
          "indexed": true,
          "internalType": "address",
          "name": "seller",
          "type": "address"
        },
        {
          "indexed": true,
          "internalType": "address",
          "name": "buyer",
          "type": "address"
        }
      ],
      "name": "Bought",
      "type": "event"
    },
    {
      "anonymous": false,
      "inputs": [
        {
          "indexed": false,
          "internalType": "uint256",
          "name": "itemId",
          "type": "uint256"
        },
        {
          "indexed": true,
          "internalType": "address",
          "name": "nft",
          "type": "address"
        },
        {
          "indexed": false,
          "internalType": "uint256",
          "name": "tokenId",
          "type": "uint256"
        },
        {
          "indexed": false,
          "internalType": "uint256",
          "name": "price",
          "type": "uint256"
        },
        {
          "indexed": true,
          "internalType": "address",
          "name": "seller",
          "type": "address"
        }
      ],
      "name": "Offered",
      "type": "event"
    },
    {
      "inputs": [],
      "name": "feeAccount",
      "outputs": [
        {
          "internalType": "address payable",
          "name": "",
          "type": "address"
        }
      ],
      "stateMutability": "view",
      "type": "function"
    },
    {
      "inputs": [],
      "name": "feePercent",
      "outputs": [
        {
          "internalType": "uint256",
          "name": "",
          "type": "uint256"
        }
      ],
      "stateMutability": "view",
      "type": "function"
    },
    {
      "inputs": [
        {
          "internalType": "uint256",
          "name": "_itemId",
          "type": "uint256"
        }
      ],
      "name": "getTotalPrice",
      "outputs": [
        {
          "internalType": "uint256",
          "name": "",
          "type": "uint256"
        }
      ],
      "stateMutability": "view",
      "type": "function"
    },
    {
      "inputs": [],
      "name": "itemCount",
      "outputs": [
        {
          "internalType": "uint256",
          "name": "",
          "type": "uint256"
        }
      ],
      "stateMutability": "view",
      "type": "function"
    },
    {
      "inputs": [
        {
          "internalType": "uint256",
          "name": "",
          "type": "uint256"
        }
      ],
      "name": "items",
      "outputs": [
        {
          "internalType": "uint256",
          "name": "itemId",
          "type": "uint256"
        },
        {
          "internalType": "contract IERC721",
          "name": "nft",
          "type": "address"
        },
        {
          "internalType": "uint256",
          "name": "tokenId",
          "type": "uint256"
        },
        {
          "internalType": "uint256",
          "name": "price",
          "type": "uint256"
        },
        {
          "internalType": "address payable",
          "name": "seller",
          "type": "address"
        },
        {
          "internalType": "bool",
          "name": "sold",
          "type": "bool"
        }
      ],
      "stateMutability": "view",
      "type": "function"
    },
    {
      "inputs": [
        {
          "internalType": "contract IERC721",
          "name": "_nft",
          "type": "address"
        },
        {
          "internalType": "uint256",
          "name": "_tokenId",
          "type": "uint256"
        },
        {
          "internalType": "uint256",
          "name": "_price",
          "type": "uint256"
        }
      ],
      "name": "makeItem",
      "outputs": [],
      "stateMutability": "nonpayable",
      "type": "function"
    },
    {
      "inputs": [
        {
          "internalType": "uint256",
          "name": "_itemId",
          "type": "uint256"
        }
      ],
      "name": "purchaseItem",
      "outputs": [],
      "stateMutability": "payable",
      "type": "function"
    },
    {
      "inputs": [
        {
          "internalType": "uint256",
          "name": "_newRoyaltyFee",
          "type": "uint256"
        }
      ],
      "name": "setRoyaltyFee",
      "outputs": [],
      "stateMutability": "nonpayable",
      "type": "function"
    }
  ],
  "bytecode": "0x60a060405234801561001057600080fd5b5060016000819055503373ffffffffffffffffffffffffffffffffffffffff1660808173ffffffffffffffffffffffffffffffffffffffff168152505060805161105661006f600039600081816101fa015261047901526110566000f3fe60806040526004361061007b5760003560e01c8063bfb231d21161004e578063bfb231d21461012a578063ca7dd3751461016c578063d38ea5bf146101a9578063fa00afc7146101c55761007b565b80633e4086e51461008057806365e17c9d146100a95780636bfb0d01146100d45780637fd6f15c146100ff575b600080fd5b34801561008c57600080fd5b506100a760048036038101906100a2919061099e565b6101ee565b005b3480156100b557600080fd5b506100be6101f8565b6040516100cb9190610a0c565b60405180910390f35b3480156100e057600080fd5b506100e961021c565b6040516100f69190610a36565b60405180910390f35b34801561010b57600080fd5b50610114610222565b6040516101219190610a36565b60405180910390f35b34801561013657600080fd5b50610151600480360381019061014c919061099e565b610228565b60405161016396959493929190610acb565b60405180910390f35b34801561017857600080fd5b50610193600480360381019061018e919061099e565b6102b1565b6040516101a09190610a36565b60405180910390f35b6101c360048036038101906101be919061099e565b6102f6565b005b3480156101d157600080fd5b506101ec60048036038101906101e79190610b7c565b61067e565b005b8060018190555050565b7f000000000000000000000000000000000000000000000000000000000000000081565b60025481565b60015481565b60036020528060005260406000206000915090508060000154908060010160009054906101000a900473ffffffffffffffffffffffffffffffffffffffff16908060020154908060030154908060040160009054906101000a900473ffffffffffffffffffffffffffffffffffffffff16908060040160149054906101000a900460ff16905086565b6000606460015460646102c49190610bfe565b60036000858152602001908152602001600020600301546102e59190610c32565b6102ef9190610ca3565b9050919050565b6102fe61090a565b6000610309826102b1565b9050600060036000848152602001908152602001600020905060008311801561033457506002548311155b610373576040517f08c379a000000000000000000000000000000000000000000000000000000000815260040161036a90610d31565b60405180910390fd5b813410156103b6576040517f08c379a00000000000000000000000000000000000000000000000000000000081526004016103ad90610dc3565b60405180910390fd5b8060040160149054906101000a900460ff1615610408576040517f08c379a00000000000000000000000000000000000000000000000000000000081526004016103ff90610e2f565b60405180910390fd5b8060040160009054906101000a900473ffffffffffffffffffffffffffffffffffffffff1673ffffffffffffffffffffffffffffffffffffffff166108fc82600301549081150290604051600060405180830381858888f19350505050158015610476573d6000803e3d6000fd5b507f000000000000000000000000000000000000000000000000000000000000000073ffffffffffffffffffffffffffffffffffffffff166108fc8260030154846104c19190610e4f565b9081150290604051600060405180830381858888f193505050501580156104ec573d6000803e3d6000fd5b5060018160040160146101000a81548160ff0219169083151502179055508060010160009054906101000a900473ffffffffffffffffffffffffffffffffffffffff1673ffffffffffffffffffffffffffffffffffffffff166323b872dd303384600201546040518463ffffffff1660e01b815260040161056f93929190610e92565b600060405180830381600087803b15801561058957600080fd5b505af115801561059d573d6000803e3d6000fd5b505050503373ffffffffffffffffffffffffffffffffffffffff168160040160009054906101000a900473ffffffffffffffffffffffffffffffffffffffff1673ffffffffffffffffffffffffffffffffffffffff168260010160009054906101000a900473ffffffffffffffffffffffffffffffffffffffff1673ffffffffffffffffffffffffffffffffffffffff167f8b4c9c8a607d67b321582dd8461041b1dc2ceeca70c8b7f37f8e02095cf2e76d868560020154866003015460405161066993929190610ec9565b60405180910390a4505061067b610959565b50565b61068661090a565b600081116106c9576040517f08c379a00000000000000000000000000000000000000000000000000000000081526004016106c090610f4c565b60405180910390fd5b600260008154809291906106dc90610f6c565b91905055508273ffffffffffffffffffffffffffffffffffffffff166323b872dd3330856040518463ffffffff1660e01b815260040161071e93929190610e92565b600060405180830381600087803b15801561073857600080fd5b505af115801561074c573d6000803e3d6000fd5b505050506040518060c0016040528060025481526020018473ffffffffffffffffffffffffffffffffffffffff1681526020018381526020018281526020013373ffffffffffffffffffffffffffffffffffffffff168152602001600015158152506003600060025481526020019081526020016000206000820151816000015560208201518160010160006101000a81548173ffffffffffffffffffffffffffffffffffffffff021916908373ffffffffffffffffffffffffffffffffffffffff160217905550604082015181600201556060820151816003015560808201518160040160006101000a81548173ffffffffffffffffffffffffffffffffffffffff021916908373ffffffffffffffffffffffffffffffffffffffff16021790555060a08201518160040160146101000a81548160ff0219169083151502179055509050503373ffffffffffffffffffffffffffffffffffffffff168373ffffffffffffffffffffffffffffffffffffffff167f655a0cf9c8db81512be9a76dc1c5ae5380b8816ce6ad659cd61b715e2999d59a60025485856040516108f593929190610ec9565b60405180910390a3610905610959565b505050565b60026000540361094f576040517f08c379a000000000000000000000000000000000000000000000000000000000815260040161094690611000565b60405180910390fd5b6002600081905550565b6001600081905550565b600080fd5b6000819050919050565b61097b81610968565b811461098657600080fd5b50565b60008135905061099881610972565b92915050565b6000602082840312156109b4576109b3610963565b5b60006109c284828501610989565b91505092915050565b600073ffffffffffffffffffffffffffffffffffffffff82169050919050565b60006109f6826109cb565b9050919050565b610a06816109eb565b82525050565b6000602082019050610a2160008301846109fd565b92915050565b610a3081610968565b82525050565b6000602082019050610a4b6000830184610a27565b92915050565b6000819050919050565b6000610a76610a71610a6c846109cb565b610a51565b6109cb565b9050919050565b6000610a8882610a5b565b9050919050565b6000610a9a82610a7d565b9050919050565b610aaa81610a8f565b82525050565b60008115159050919050565b610ac581610ab0565b82525050565b600060c082019050610ae06000830189610a27565b610aed6020830188610aa1565b610afa6040830187610a27565b610b076060830186610a27565b610b1460808301856109fd565b610b2160a0830184610abc565b979650505050505050565b6000610b37826109cb565b9050919050565b6000610b4982610b2c565b9050919050565b610b5981610b3e565b8114610b6457600080fd5b50565b600081359050610b7681610b50565b92915050565b600080600060608486031215610b9557610b94610963565b5b6000610ba386828701610b67565b9350506020610bb486828701610989565b9250506040610bc586828701610989565b9150509250925092565b7f4e487b7100000000000000000000000000000000000000000000000000000000600052601160045260246000fd5b6000610c0982610968565b9150610c1483610968565b9250828201905080821115610c2c57610c2b610bcf565b5b92915050565b6000610c3d82610968565b9150610c4883610968565b9250828202610c5681610968565b91508282048414831517610c6d57610c6c610bcf565b5b5092915050565b7f4e487b7100000000000000000000000000000000000000000000000000000000600052601260045260246000fd5b6000610cae82610968565b9150610cb983610968565b925082610cc957610cc8610c74565b5b828204905092915050565b600082825260208201905092915050565b7f4974656d20646f65736e27742065786973740000000000000000000000000000600082015250565b6000610d1b601283610cd4565b9150610d2682610ce5565b602082019050919050565b60006020820190508181036000830152610d4a81610d0e565b9050919050565b7f4e6f7420656e6f75676820657468657220746f20706179206974656d2070726960008201527f636520616e64206d61726b657420666565000000000000000000000000000000602082015250565b6000610dad603183610cd4565b9150610db882610d51565b604082019050919050565b60006020820190508181036000830152610ddc81610da0565b9050919050565b7f4974656d2068617320616c726561647920736f6c640000000000000000000000600082015250565b6000610e19601583610cd4565b9150610e2482610de3565b602082019050919050565b60006020820190508181036000830152610e4881610e0c565b9050919050565b6000610e5a82610968565b9150610e6583610968565b9250828203905081811115610e7d57610e7c610bcf565b5b92915050565b610e8c81610b2c565b82525050565b6000606082019050610ea76000830186610e83565b610eb46020830185610e83565b610ec16040830184610a27565b949350505050565b6000606082019050610ede6000830186610a27565b610eeb6020830185610a27565b610ef86040830184610a27565b949350505050565b7f5072696365206d757374206e6f74206265207a65726f00000000000000000000600082015250565b6000610f36601683610cd4565b9150610f4182610f00565b602082019050919050565b60006020820190508181036000830152610f6581610f29565b9050919050565b6000610f7782610968565b91507fffffffffffffffffffffffffffffffffffffffffffffffffffffffffffffffff8203610fa957610fa8610bcf565b5b600182019050919050565b7f5265656e7472616e637947756172643a207265656e7472616e742063616c6c00600082015250565b6000610fea601f83610cd4565b9150610ff582610fb4565b602082019050919050565b6000602082019050818103600083015261101981610fdd565b905091905056fea26469706673582212206f59c6ba5e4f22a657761aaff34e98a9f598255d87fd28ab07516b1ed8e1e0ec64736f6c63430008110033",
  "linkReferences": {},
  "deployedLinkReferences": {}
}