{
  "_format": "hh-sol-artifact-1",
  "contractName": "Marketplace",
  "sourceName": "src/backend/contracts/Marketplace.sol",
  "abi": [
    {
      "inputs": [],
      "stateMutability": "nonpayable",
      "type": "constructor"
    },
    {
      "anonymous": false,
      "inputs": [
        {
          "indexed": false,
          "internalType": "uint256",
          "name": "itemId",
          "type": "uint256"
        },
        {
          "indexed": true,
          "internalType": "address",
          "name": "nft",
          "type": "address"
        },
        {
          "indexed": false,
          "internalType": "uint256",
          "name": "tokenId",
          "type": "uint256"
        },
        {
          "indexed": false,
          "internalType": "uint256",
          "name": "price",
          "type": "uint256"
        },
        {
          "indexed": true,
          "internalType": "address",
          "name": "seller",
          "type": "address"
        },
        {
          "indexed": true,
          "internalType": "address",
          "name": "buyer",
          "type": "address"
        },
        {
          "indexed": false,
          "internalType": "bool",
          "name": "resell",
          "type": "bool"
        }
      ],
      "name": "Bought",
      "type": "event"
    },
    {
      "anonymous": false,
      "inputs": [
        {
          "indexed": false,
          "internalType": "uint256",
          "name": "itemId",
          "type": "uint256"
        },
        {
          "indexed": true,
          "internalType": "address",
          "name": "nft",
          "type": "address"
        },
        {
          "indexed": false,
          "internalType": "uint256",
          "name": "tokenId",
          "type": "uint256"
        },
        {
          "indexed": false,
          "internalType": "uint256",
          "name": "price",
          "type": "uint256"
        },
        {
          "indexed": true,
          "internalType": "address",
          "name": "seller",
          "type": "address"
        }
      ],
      "name": "Offered",
      "type": "event"
    },
    {
      "inputs": [],
      "name": "feeAccount",
      "outputs": [
        {
          "internalType": "address payable",
          "name": "",
          "type": "address"
        }
      ],
      "stateMutability": "view",
      "type": "function"
    },
    {
      "inputs": [],
      "name": "feePercent",
      "outputs": [
        {
          "internalType": "uint256",
          "name": "",
          "type": "uint256"
        }
      ],
      "stateMutability": "view",
      "type": "function"
    },
    {
      "inputs": [
        {
          "internalType": "uint256",
          "name": "_itemId",
          "type": "uint256"
        }
      ],
      "name": "getTotalPrice",
      "outputs": [
        {
          "internalType": "uint256",
          "name": "",
          "type": "uint256"
        }
      ],
      "stateMutability": "view",
      "type": "function"
    },
    {
      "inputs": [],
      "name": "itemCount",
      "outputs": [
        {
          "internalType": "uint256",
          "name": "",
          "type": "uint256"
        }
      ],
      "stateMutability": "view",
      "type": "function"
    },
    {
      "inputs": [
        {
          "internalType": "uint256",
          "name": "",
          "type": "uint256"
        }
      ],
      "name": "items",
      "outputs": [
        {
          "internalType": "uint256",
          "name": "itemId",
          "type": "uint256"
        },
        {
          "internalType": "contract IERC721",
          "name": "nft",
          "type": "address"
        },
        {
          "internalType": "uint256",
          "name": "tokenId",
          "type": "uint256"
        },
        {
          "internalType": "uint256",
          "name": "price",
          "type": "uint256"
        },
        {
          "internalType": "address payable",
          "name": "seller",
          "type": "address"
        },
        {
          "internalType": "bool",
          "name": "sold",
          "type": "bool"
        },
        {
          "internalType": "bool",
          "name": "resell",
          "type": "bool"
        }
      ],
      "stateMutability": "view",
      "type": "function"
    },
    {
      "inputs": [
        {
          "internalType": "contract IERC721",
          "name": "_nft",
          "type": "address"
        },
        {
          "internalType": "uint256",
          "name": "_tokenId",
          "type": "uint256"
        },
        {
          "internalType": "uint256",
          "name": "_price",
          "type": "uint256"
        },
        {
          "internalType": "uint256",
          "name": "_feePercent",
          "type": "uint256"
        },
        {
          "internalType": "bool",
          "name": "_isResell",
          "type": "bool"
        }
      ],
      "name": "makeItem",
      "outputs": [],
      "stateMutability": "nonpayable",
      "type": "function"
    },
    {
      "inputs": [
        {
          "internalType": "uint256",
          "name": "_itemId",
          "type": "uint256"
        }
      ],
      "name": "purchaseItem",
      "outputs": [],
      "stateMutability": "payable",
      "type": "function"
    },
    {
      "inputs": [
        {
          "internalType": "uint256",
          "name": "",
          "type": "uint256"
        }
      ],
      "name": "royalties",
      "outputs": [
        {
          "internalType": "uint256",
          "name": "feePercent",
          "type": "uint256"
        }
      ],
      "stateMutability": "view",
      "type": "function"
    },
    {
      "inputs": [
        {
          "internalType": "uint256",
          "name": "_newRoyaltyFee",
          "type": "uint256"
        }
      ],
      "name": "setRoyaltyFee",
      "outputs": [],
      "stateMutability": "nonpayable",
      "type": "function"
    }
  ],
  "bytecode": "0x60a060405234801561001057600080fd5b5060016000819055503373ffffffffffffffffffffffffffffffffffffffff1660808173ffffffffffffffffffffffffffffffffffffffff168152505060805161131461006f60003960008181610243015261088001526113146000f3fe6080604052600436106100865760003560e01c80637fd6f15c116100595780637fd6f15c14610147578063be7533d814610172578063bfb231d21461019b578063ca7dd375146101de578063d38ea5bf1461021b57610086565b80633e4086e51461008b57806365e17c9d146100b45780636bfb0d01146100df5780637f77f5741461010a575b600080fd5b34801561009757600080fd5b506100b260048036038101906100ad9190610b49565b610237565b005b3480156100c057600080fd5b506100c9610241565b6040516100d69190610bb7565b60405180910390f35b3480156100eb57600080fd5b506100f4610265565b6040516101019190610be1565b60405180910390f35b34801561011657600080fd5b50610131600480360381019061012c9190610b49565b61026b565b60405161013e9190610be1565b60405180910390f35b34801561015357600080fd5b5061015c610289565b6040516101699190610be1565b60405180910390f35b34801561017e57600080fd5b5061019960048036038101906101949190610c84565b61028f565b005b3480156101a757600080fd5b506101c260048036038101906101bd9190610b49565b610576565b6040516101d59796959493929190610d6d565b60405180910390f35b3480156101ea57600080fd5b5061020560048036038101906102009190610b49565b610612565b6040516102129190610be1565b60405180910390f35b61023560048036038101906102309190610b49565b61066b565b005b8060018190555050565b7f000000000000000000000000000000000000000000000000000000000000000081565b60025481565b60046020528060005260406000206000915090508060000154905081565b60015481565b610297610ab5565b600083116102da576040517f08c379a00000000000000000000000000000000000000000000000000000000081526004016102d190610e39565b60405180910390fd5b600260008154809291906102ed90610e88565b91905055508473ffffffffffffffffffffffffffffffffffffffff166323b872dd3330876040518463ffffffff1660e01b815260040161032f93929190610edf565b600060405180830381600087803b15801561034957600080fd5b505af115801561035d573d6000803e3d6000fd5b505050506040518060e0016040528060025481526020018673ffffffffffffffffffffffffffffffffffffffff1681526020018581526020018481526020013373ffffffffffffffffffffffffffffffffffffffff1681526020016000151581526020018215158152506003600060025481526020019081526020016000206000820151816000015560208201518160010160006101000a81548173ffffffffffffffffffffffffffffffffffffffff021916908373ffffffffffffffffffffffffffffffffffffffff160217905550604082015181600201556060820151816003015560808201518160040160006101000a81548173ffffffffffffffffffffffffffffffffffffffff021916908373ffffffffffffffffffffffffffffffffffffffff16021790555060a08201518160040160146101000a81548160ff02191690831515021790555060c08201518160040160156101000a81548160ff021916908315150217905550905050604051806020016040528083815250600460006002548152602001908152602001600020600082015181600001559050503373ffffffffffffffffffffffffffffffffffffffff168573ffffffffffffffffffffffffffffffffffffffff167f655a0cf9c8db81512be9a76dc1c5ae5380b8816ce6ad659cd61b715e2999d59a600254878760405161055f93929190610f16565b60405180910390a361056f610b04565b5050505050565b60036020528060005260406000206000915090508060000154908060010160009054906101000a900473ffffffffffffffffffffffffffffffffffffffff16908060020154908060030154908060040160009054906101000a900473ffffffffffffffffffffffffffffffffffffffff16908060040160149054906101000a900460ff16908060040160159054906101000a900460ff16905087565b60006064600460008481526020019081526020016000206000015460646106399190610f4d565b600360008581526020019081526020016000206003015461065a9190610f81565b6106649190610ff2565b9050919050565b610673610ab5565b600061067e82610612565b905060006003600084815260200190815260200160002090506000831180156106a957506002548311155b6106e8576040517f08c379a00000000000000000000000000000000000000000000000000000000081526004016106df9061106f565b60405180910390fd5b8134101561072b576040517f08c379a000000000000000000000000000000000000000000000000000000000815260040161072290611101565b60405180910390fd5b8060040160009054906101000a900473ffffffffffffffffffffffffffffffffffffffff1673ffffffffffffffffffffffffffffffffffffffff163373ffffffffffffffffffffffffffffffffffffffff16036107bd576040517f08c379a00000000000000000000000000000000000000000000000000000000081526004016107b49061116d565b60405180910390fd5b8060040160149054906101000a900460ff161561080f576040517f08c379a0000000000000000000000000000000000000000000000000000000008152600401610806906111d9565b60405180910390fd5b8060040160009054906101000a900473ffffffffffffffffffffffffffffffffffffffff1673ffffffffffffffffffffffffffffffffffffffff166108fc82600301549081150290604051600060405180830381858888f1935050505015801561087d573d6000803e3d6000fd5b507f000000000000000000000000000000000000000000000000000000000000000073ffffffffffffffffffffffffffffffffffffffff166108fc8260030154846108c891906111f9565b9081150290604051600060405180830381858888f193505050501580156108f3573d6000803e3d6000fd5b5060018160040160146101000a81548160ff02191690831515021790555060008160040160156101000a81548160ff0219169083151502179055508060010160009054906101000a900473ffffffffffffffffffffffffffffffffffffffff1673ffffffffffffffffffffffffffffffffffffffff166323b872dd303384600201546040518463ffffffff1660e01b815260040161099393929190610edf565b600060405180830381600087803b1580156109ad57600080fd5b505af11580156109c1573d6000803e3d6000fd5b505050503373ffffffffffffffffffffffffffffffffffffffff168160040160009054906101000a900473ffffffffffffffffffffffffffffffffffffffff1673ffffffffffffffffffffffffffffffffffffffff168260010160009054906101000a900473ffffffffffffffffffffffffffffffffffffffff1673ffffffffffffffffffffffffffffffffffffffff167f2338d44341bebebf9bc5716643778e616f04ee9e0a5f4ee9417d7e3cda85a9b686856002015486600301548760040160159054906101000a900460ff16604051610aa0949392919061122d565b60405180910390a45050610ab2610b04565b50565b600260005403610afa576040517f08c379a0000000000000000000000000000000000000000000000000000000008152600401610af1906112be565b60405180910390fd5b6002600081905550565b6001600081905550565b600080fd5b6000819050919050565b610b2681610b13565b8114610b3157600080fd5b50565b600081359050610b4381610b1d565b92915050565b600060208284031215610b5f57610b5e610b0e565b5b6000610b6d84828501610b34565b91505092915050565b600073ffffffffffffffffffffffffffffffffffffffff82169050919050565b6000610ba182610b76565b9050919050565b610bb181610b96565b82525050565b6000602082019050610bcc6000830184610ba8565b92915050565b610bdb81610b13565b82525050565b6000602082019050610bf66000830184610bd2565b92915050565b6000610c0782610b76565b9050919050565b6000610c1982610bfc565b9050919050565b610c2981610c0e565b8114610c3457600080fd5b50565b600081359050610c4681610c20565b92915050565b60008115159050919050565b610c6181610c4c565b8114610c6c57600080fd5b50565b600081359050610c7e81610c58565b92915050565b600080600080600060a08688031215610ca057610c9f610b0e565b5b6000610cae88828901610c37565b9550506020610cbf88828901610b34565b9450506040610cd088828901610b34565b9350506060610ce188828901610b34565b9250506080610cf288828901610c6f565b9150509295509295909350565b6000819050919050565b6000610d24610d1f610d1a84610b76565b610cff565b610b76565b9050919050565b6000610d3682610d09565b9050919050565b6000610d4882610d2b565b9050919050565b610d5881610d3d565b82525050565b610d6781610c4c565b82525050565b600060e082019050610d82600083018a610bd2565b610d8f6020830189610d4f565b610d9c6040830188610bd2565b610da96060830187610bd2565b610db66080830186610ba8565b610dc360a0830185610d5e565b610dd060c0830184610d5e565b98975050505050505050565b600082825260208201905092915050565b7f5072696365206d757374206e6f74206265207a65726f00000000000000000000600082015250565b6000610e23601683610ddc565b9150610e2e82610ded565b602082019050919050565b60006020820190508181036000830152610e5281610e16565b9050919050565b7f4e487b7100000000000000000000000000000000000000000000000000000000600052601160045260246000fd5b6000610e9382610b13565b91507fffffffffffffffffffffffffffffffffffffffffffffffffffffffffffffffff8203610ec557610ec4610e59565b5b600182019050919050565b610ed981610bfc565b82525050565b6000606082019050610ef46000830186610ed0565b610f016020830185610ed0565b610f0e6040830184610bd2565b949350505050565b6000606082019050610f2b6000830186610bd2565b610f386020830185610bd2565b610f456040830184610bd2565b949350505050565b6000610f5882610b13565b9150610f6383610b13565b9250828201905080821115610f7b57610f7a610e59565b5b92915050565b6000610f8c82610b13565b9150610f9783610b13565b9250828202610fa581610b13565b91508282048414831517610fbc57610fbb610e59565b5b5092915050565b7f4e487b7100000000000000000000000000000000000000000000000000000000600052601260045260246000fd5b6000610ffd82610b13565b915061100883610b13565b92508261101857611017610fc3565b5b828204905092915050565b7f4974656d20646f65736e27742065786973740000000000000000000000000000600082015250565b6000611059601283610ddc565b915061106482611023565b602082019050919050565b600060208201905081810360008301526110888161104c565b9050919050565b7f4e6f7420656e6f75676820657468657220746f20706179206974656d2070726960008201527f636520616e64206d61726b657420666565000000000000000000000000000000602082015250565b60006110eb603183610ddc565b91506110f68261108f565b604082019050919050565b6000602082019050818103600083015261111a816110de565b9050919050565b7f596f752063616e27742062757920796f7572206f776e204e4654000000000000600082015250565b6000611157601a83610ddc565b915061116282611121565b602082019050919050565b600060208201905081810360008301526111868161114a565b9050919050565b7f4974656d2068617320616c726561647920736f6c640000000000000000000000600082015250565b60006111c3601583610ddc565b91506111ce8261118d565b602082019050919050565b600060208201905081810360008301526111f2816111b6565b9050919050565b600061120482610b13565b915061120f83610b13565b925082820390508181111561122757611226610e59565b5b92915050565b60006080820190506112426000830187610bd2565b61124f6020830186610bd2565b61125c6040830185610bd2565b6112696060830184610d5e565b95945050505050565b7f5265656e7472616e637947756172643a207265656e7472616e742063616c6c00600082015250565b60006112a8601f83610ddc565b91506112b382611272565b602082019050919050565b600060208201905081810360008301526112d78161129b565b905091905056fea2646970667358221220aa8b5f2c7ae0e233ab2a86052ecceb8eaa4fe2a57c62ea5736b1b8f732f8edcc64736f6c63430008110033",
  "linkReferences": {},
  "deployedLinkReferences": {}
}